:100000000C9468010C9485010C9485010C94850175
:100010000C9485010C9413040C9485010C948501B7
:100020000C9485010C94B2040C9485010C94850108
:100030000C9485010C9485010C9485010C94850128
:100040000C9467180C9485010C9485010C9485011F
:100050000C9419170C94D7160C9485010C948501F7
:100060000C9485010C9485010C9485010C948501F8
:100070000C9485010C9485010C94850108070B07ED
:100080000B070B0708070F070F07130762072B075C
:100090002B072B0762073C073C0755076C65766505
:1000A0006C3A2025750053636F72653A2025750000
:1000B000257300257300456E7465722061206E61A2
:1000C0006D65004E455720484947482053434F52DD
:1000D000452121002573002025750025730020256A
:1000E00075002573002025750025730020257500F7
:1000F0002573002025750020203520002020342085
:100100002000202033200020203220002020312019
:1001100020002020204E616D650053636F726500E2
:100120002052616E6B004869676873636F72650087
:100130004C6576656C3A202575004C697665733A96
:100140002025750050726573732061206275747488
:100150006F6E20746F2073746172742061676169BF
:100160006E0047414D45204F5645520057494E4E6F
:10017000455221210043535345323031302F37321D
:1001800030312070726F6A656374206279204D6926
:10019000636861656C20426F73736E6572205334BF
:1001A0003432373731390046726F676765720053F2
:1001B000636F72653A2025347500250222021E0203
:1001C0001A02160212020E020A0206020202940229
:1001D00090028C028802840280027C0278027502FE
:1001E00071026D026902640260025C0258025302ED
:1001F0004F024B02460242023D02380233022E02F7
:1002000029026492927D6C92926D809EA0C17C9234
:10021000924DE4A2A29D182848FF4492926D468A0E
:10022000926342FE037C92A27D868A92A2C3E01072
:100230000E10E1C6281028C7FC021C02FDF80402BB
:1002400004F9FC0202FD8080FE80816492924DFEE2
:100250009098677C828A7C03FE9090617C82827D8C
:10026000FE2010FFFE403040FFFE020203FE102879
:10027000C7040202FD82FE83FE1010FF7C82925DA5
:10028000FE909081FE929283FE82827D7C828245E6
:10029000FE92926D7E90907F1B5B421B5B44001B25
:1002A0005B3F323568001B5B3F32356C001B5B25C2
:1002B000646D001B5B4B001B5B324A001B5B376DA0
:1002C000001B5B306D001B5B25643B256448000010
:1002D00011241FBECFEFD8E0DEBFCDBF12E0A0E0FB
:1002E000B1E0E6EAFCE302C005900D92A036B1074A
:1002F000D9F724E0A0E6B2E001C01D92A530B20714
:10030000E1F70E94F8140C94511E0C940000CF9257
:10031000DF92EF92FF9281E080936902E0916802A0
:10032000F0E0EE0FFF1F8091650290916602E80FEA
:10033000F91F2081318140E050E060E472E48FE0F9
:1003400090E00E945A1A69017A01B90180E090E0B8
:100350000E94361920917502309176024091770201
:10036000509178020E94ED1920E030E048EC52E410
:100370000E9495180E94071970937402609373028B
:1003800081E0C81AD108D0928900C092880080917B
:10039000730290917402019790938B0080938A006E
:1003A000E0916802F0E0EE0FFF1F809163029091F0
:1003B0006402E80FF91F808191819093610280931C
:1003C00060020E94511860936F02709370028093D4
:1003D000710290937202E0916802F0E0EE0FFF1F4D
:1003E0008091650290916602E80FF91F80819181EA
:1003F000892B11F04B9B549A809168028F5F8093F8
:100400006802FF90EF90DF90CF900895CF92DF9237
:10041000EF92FF9280E090E0A0EAB1E48093750251
:1004200090937602A0937702B093780260E472E42E
:100430008FE090E020E030E0A9010E945A1A6901A3
:100440007A01B90180E090E00E94361920E030E0A6
:1004500040EA51E40E94ED1920E030E048EC52E41B
:100460000E9495180E94071970937402609373029A
:1004700081E0C81AD108D0928900C092880080918A
:10048000730290917402019790938B0080938A007D
:10049000549883E2809380008AE180938100FF90EA
:1004A000EF90DF90CF9008958F929F92AF92BF927E
:1004B000CF92DF92EF92FF920F931F934A9B0DC052
:1004C0004DEC5CEC6CE47EE3409375025093760255
:1004D00060937702709378020CC040E050E060EACD
:1004E00071E44093750250937602609377027093A3
:1004F00078028F3F2FEF920709F076C08091670254
:10050000813009F03DC180916A02882309F1909100
:10051000680280916202981708F05AC00E94511830
:1005200000916B0210916C0220916D0230916E026D
:100530000E5C1F4F2F4F3F4F6017710782079307C5
:1005400018F010926A021CC180916A02811140C0A9
:1005500080916902882391F10E94511820916002D4
:1005600030916102C0906F02D0907002E0907102F1
:10057000F090720246015701820E931EA11CB11C1D
:10058000681579058A059B0588F054980E945118D2
:1005900060936B0270936C0280936D0290936E0275
:1005A00081E080936A0210926902EAC080916A0237
:1005B00081110EC0809169028111E2C090916802A0
:1005C00080916202981708F0DBC00E948701D8C0B2
:1005D0009091680280916202981708F4D1C010923D
:1005E0006A0210926702CCC081309105B9F481E0B3
:1005F000809367021092680284E691E0909366020D
:100600008093650280E691E0909364028093630298
:1006100082E0809362020E948701B2C0823091051D
:1006200021F581E0809367021092680286E591E0EF
:1006300090936602809365028CE491E0909364024B
:100640008093630285E0809362020E94870180911B
:100650006702813009F094C08FEF9FEF0E9454022F
:10066000809167028130C1F38BC08330910521F501
:1006700081E0809367021092680282E491E0909397
:1006800066028093650288E391E090936402809310
:10069000630285E0809362020E9487018091670275
:1006A000813009F06DC08FEF9FEF0E94540280915E
:1006B00067028130C1F364C084309105B9F481E0F0
:1006C00080936702109268028EE291E09093660236
:1006D0008093650284E291E09093640280936302C8
:1006E00085E0809362020E9487014AC085309105AF
:1006F00019F581E0809367021092680288E191E029
:1007000090936602809365028CE091E0909364027E
:100710008093630286E0809362020E948701809149
:100720006702813069F58FEF9FEF0E94540280913C
:1007300067028130C1F324C0069711F581E08093F0
:1007400067021092680286E091E0909366028093BF
:10075000650280E091E0909364028093630283E0FD
:10076000809362020E94870180916702813041F488
:100770008FEF9FEF0E945402809167028130C1F396
:100780001F910F91FF90EF90DF90CF90BF90AF90AF
:100790009F908F900895E8E6F0E0808182608083EA
:1007A000D99AECE6F0E080818F6080831092790224
:1007B0000895EAE7F2E08FEF808381838283838369
:1007C0001092790208958091790218163CF5809173
:1007D0007A026FB7F894909179029230B4F021E0E8
:1007E00030E091E0F901E658FD4F4081F901E7580A
:1007F000FD4F40839F5F292F30E040917902042E06
:10080000000C550B241735076CF390917902915029
:100810009093790266231CF4789408958FEF0895DD
:100820008091680108951F920F920FB60F921124C4
:100830002F933F934F935F936F938F939F93AF93B8
:10084000BF93EF93FF9333B13F7080E090E0A32F0D
:10085000B0E020917902243014F5AD01082E02C0D9
:10086000559547950A94E2F740FF19C040917E02E2
:1008700050E0082E02C0559547950A94E2F740FDD6
:100880000EC0E091790221E02E0F209379020E2E06
:10089000000CFF0BE658FD4F8083809368010196A2
:1008A00084309105B1F620916801832F90E002C059
:1008B000959587952A95E2F780FD0FC080917E027D
:1008C0002091680190E002C0959587952A95E2F7FE
:1008D00080FF03C08FEF8093680130937E02FF9109
:1008E000EF91BF91AF919F918F916F915F914F91D8
:1008F0003F912F910F900FBE0F901F90189580ED94
:1009000097E090938202809381021092800210926D
:10091000B2008DE48093B30082E08093B00087E062
:100920008093B100E0E7F0E080818260808387B34C
:10093000827087BB8FEF87B90F9A089580ED97E09B
:10094000909382028093810210928500109284001D
:1009500010928002089580938002811102C082E08B
:1009600086BB08951F920F920FB60F9211242F93FA
:100970003F934F935F936F937F938F939F93AF9327
:10098000BF93EF93FF938091800281110BC0809100
:10099000810290918202019790938202809381025A
:1009A0000E945E0E80917F02805880937F0280912A
:1009B0007F02882321F082B1805882B901C0179844
:1009C0008091810290918202883E934008F468C031
:1009D00080917F028823A9F12091810230918202C7
:1009E000369527953695279536952795A5ECB0E24F
:1009F0000E94A11AAC01529542954F7045275F7035
:100A000045279A01ADECBCEC0E94A11A96958795FA
:100A100096958795969587959C01220F331F880F91
:100A2000991F880F991F880F991F820F931FFA0132
:100A3000E81BF90BEE0FFF1FE657FE4F808188B9C8
:100A40009EC020918102309182023695279536957D
:100A50002795ABE7B4E10E94A11AAC0156954795E2
:100A60009A01ADECBCEC0E94A11A969587959695DB
:100A70008795969587959C01220F331F880F991FA4
:100A8000880F991F880F991F820F931FFA01E81B87
:100A9000F90BEE0FFF1FE657FE4F808188B96FC03C
:100AA000809181029091820284369105A8F1809113
:100AB0007F02882311F018B862C020918102309122
:100AC00082023695279536952795ABE7B4E10E94CB
:100AD000A11AAC01569547959A01ADECBCEC0E9469
:100AE000A11A9695879596958795969587959C01D9
:100AF000220F331F880F991F880F991F880F991F86
:100B0000820F931FFA01E81BF90BEE0FFF1FE65748
:100B1000FE4F808188B933C080917F02882319F00D
:100B20008FEB88B92CC02091810230918202ADEC0C
:100B3000BCEC0E94A11AAC01569547955695479575
:100B4000569547959A010E94A11A96958795969574
:100B50008795969587959C01220F331F880F991FC3
:100B6000880F991F880F991F820F931FFA01E81BA6
:100B7000F90BEE0FFF1FE657FE4F808188B9809179
:100B8000810290918202892B39F40E946607873096
:100B900019F081E00E947A07FF91EF91BF91AF9128
:100BA0009F918F917F916F915F914F913F912F9185
:100BB0000F900FBE0F901F901895CF93DF93CDB776
:100BC000DEB760970FB6F894DEBF0FBECDBFFE0153
:100BD00031969E012F5E3F4F91E19193E217F3070B
:100BE000E1F7BE016F5F7F4F0E94501060960FB615
:100BF000F894DEBF0FBECDBFDF91CF910895EF9285
:100C0000FF920F931F93CF93DF93CDB7DEB760971B
:100C10000FB6F894DEBF0FBECDBFA0918502B09194
:100C20008602E0908302F0908402AE014F5F5F4F36
:100C3000BE016F5E7F4FFA0100EF11E1CF01841B0F
:100C4000950B9D01082E02C0369527950A94E2F770
:100C500020FF02C010830BC0970102C03695279574
:100C60008A95E2F720FF02C0008301C0108231960E
:100C7000E617F70719F7BE016F5F7F4F87E00E9405
:100C8000501060960FB6F894DEBF0FBECDBFDF9157
:100C9000CF911F910F91FF90EF900895BF92CF9247
:100CA000DF92EF92FF920F931F93CF93DF93CDB715
:100CB000DEB760970FB6F894DEBF0FBECDBFB82E7B
:100CC000E82FF0E0E757FD4F1081CE0101967C013F
:100CD0006E0191E1C90ED11C8B2D0E94CB10012F0A
:100CE0000E94B21A217030E040E050E060E070E015
:100CF00080E090E0A0E00E94CE1A31F08B2D0E949F
:100D0000FA10F701808302C0F70110821F5F1034D0
:100D100008F010E0FFEFEF1AFF0AEC14FD04E1F613
:100D2000BE016F5F7F4F81E08B0D0E945010609677
:100D30000FB6F894DEBF0FBECDBFDF91CF911F91EC
:100D40000F91FF90EF90DF90CF90BF900895BF92EA
:100D5000CF92DF92EF92FF920F931F93CF93DF9387
:100D6000CDB7DEB760970FB6F894DEBF0FBECDBF2C
:100D7000082FE82FF0E0E957FD4F1081CE010196D2
:100D80007C016E0191E1C90ED11C0F2EFCE3BF2E38
:100D9000F02D802F0E94E710DC01CB01012E04C052
:100DA000B695A795979587950A94D2F780FF03C0CB
:100DB000F701B08202C0F70110821F5F103208F005
:100DC00010E0FFEFEF1AFF0AEC14FD0411F7BE016B
:100DD0006F5F7F4F85E0800F0E94501060960FB6C6
:100DE000F894DEBF0FBECDBFDF91CF911F910F9161
:100DF000FF90EF90DF90CF90BF900895482F50E084
:100E00004830510590F4FA01E25CFF4F0C949B1AB4
:100E10000E94DD05089581500E944E060895855078
:100E20000E94A70608950E94FF0508950F931F933F
:100E3000603108F045C0082F082E000C110B220B62
:100E4000330B0830110528F4F801EA5BFF4F0C94CE
:100E50009B1A81E038C08150E82FF0E0E757FD4F42
:100E60000081060F003408F000540E94CB100E944D
:100E7000B21A822F817027C08550E82FF0E0E95721
:100E8000FD4F0081060F003208F000520E94E7106B
:100E9000DC01CB0104C0B695A795979587950A9577
:100EA000D2F721E0822781700EC080918302909159
:100EB000840202C0969587956A95E2F7817003C017
:100EC00081E001C080E01F910F91089580918E0212
:100ED000089581E020918302309184022F3F3F4F9B
:100EE00009F080E0089581E090918E02973009F03A
:100EF00080E00895813019F480938C020895109257
:100F00008C02089580918C02089580918C02882330
:100F100041F045E360918E0280918D020E94311074
:100F2000089540EF60918E0280918D020E943110F1
:100F300008950E94911080E00E94DD0584E00E94E7
:100F4000DD0580E00E944E0681E00E944E0682E0B0
:100F50000E944E0680E00E94A70681E00E94A7063C
:100F60000E94FF0510928E0287E080938D021092FE
:100F70008C020E9485070E949E040E94D9030E9451
:100F8000D2160E9401100895F894E9E8F2E0128266
:100F900011821082E7E8F2E0118210828DED9DED62
:100FA00090938602809385029093840280938302BB
:100FB0000E9499077894089580918E020E94FE06FF
:100FC00080918E0260918D028F5F0E941607809340
:100FD0008C0280918E028F5F80938E020E94850723
:100FE00080918C02811120C080918E028730C1F4E3
:100FF00081E090E000908D0202C0880F991F0A9452
:10100000E2F72091830230918402822B932B9093FC
:101010008402809383028AE090E00E942D15089557
:1010200081E090E00E942D15089580918E0281113B
:1010300004C081E080938C0208950E94FE06809196
:101040008E0260918D0281500E94160780938C025F
:1010500080918E02815080938E020E9485070895B0
:1010600080918D02811104C081E080938C020895EB
:1010700080918E020E94FE0660918D0261508091E7
:101080008E020E94160780938C0280918D028150FF
:1010900080938D020E948507089580918D028F3084
:1010A00021F481E080938C02089580918E020E9449
:1010B000FE0660918D026F5F80918E020E9416077E
:1010C00080938C0280918D028F5F80938D020E94AD
:1010D0008507089580918D02811104C081E080937D
:1010E0008C02089580918E020E94FE0660918D020E
:1010F000615080918E028F5F0E94160780938C0250
:1011000080918E028F5F80938E0280918D0281503C
:1011100080938D020E94850780918C02811120C0EE
:1011200080918E028730C1F481E090E000908D02C2
:1011300002C0880F991F0A94E2F720918302309130
:101140008402822B932B90938402809383028AE003
:1011500090E00E942D15089581E090E00E942D15E9
:10116000089580918D028F3021F481E080938C026C
:10117000089580918E020E94FE0660918D026F5F3D
:1011800080918E028F5F0E94160780938C0280915F
:101190008E028F5F80938E0280918D028F5F80938D
:1011A0008D020E94850780918C02811120C0809160
:1011B0008E028730C1F481E090E000908D0202C081
:1011C000880F991F0A94E2F72091830230918402DC
:1011D000822B932B90938402809383028AE090E089
:1011E0000E942D15089581E090E00E942D1508952C
:1011F00080918E02882321F090918D02911104C07C
:1012000081E080938C0208950E94FE0660918D0219
:10121000615080918E0281500E94160780938C024B
:1012200080918E02815080938E0280918D02815038
:1012300080938D020E948507089580918E028823F5
:1012400021F090918D02911104C081E080938C0275
:1012500008950E94FE0660918D026F5F80918E025C
:1012600081500E94160780938C0280918E028150DB
:1012700080938E0280918D028F5F80938D020E94F9
:10128000850708950F931F93CF93DF93C0918E022C
:101290000C2E000CDD0B282F30E089010F5F1F4F53
:1012A000F901E757FD4F9081961B32F4F901E7579A
:1012B000FD4F9FE390830BC090342CF4F901E75766
:1012C000FD4F908304C0F901E757FD4F10820E9443
:1012D0004E06C017D10751F460918D0280918E02A5
:1012E0000E94160780938C020E948507DF91CF91A0
:1012F0001F910F9108950F931F93CF93DF93C09188
:101300008E020C2E000CDD0B282F30E089010B5FC4
:101310001F4FC017D107C9F4613041F490918D027D
:101320009F3071F491E090938C020FC06F3F41F4B5
:1013300090918D02911104C091E090938C0205C0B0
:1013400090918D02960F90938D02F901E957FD4F10
:101350009081961B32F4F901E957FD4F9FE190838C
:101360000BC090322CF4F901E957FD4F908304C073
:10137000F901E957FD4F10820E94A706C017D10757
:1013800011F40E948507DF91CF911F910F9108956D
:101390004F925F926F927F928F929F92AF92CF9275
:1013A000DF92EF92FF921F93CF93DF93E0E9F2E099
:1013B0008BE992E01192E817F907E1F769E070E034
:1013C0008EE390E00E949A1783EC90E09F938F93B6
:1013D0000E94181B6BE070E08EE390E00E949A1769
:1013E00086EB90E09F938F930E94181B6CE070E057
:1013F0008EE390E00E949A170E94E5170F900F90DD
:101400000F900F9010E0C0E9D2E00F2EF0EBCF2E3E
:10141000F0E0DF2EF02D0F2EF3EB4F2EF0E05F2EDD
:10142000F02D0F2EFFEFEF2EF3E0FF2EF02DAA246C
:10143000AA946894662461F8772473940E94CB166A
:101440008823E1F384E20E94CF170E94CB16882301
:1014500031F1F701808191810E94DA1A80939C0218
:1014600090916901911107C08B31B9F470926901B3
:10147000A0929C0282C0913039F48B3571F4609255
:101480006901A0929C0279C0923039F480939B024A
:10149000A0929C021092690170C010926901809123
:1014A0009C028A3009F453C0803229F0982F9F7D26
:1014B00091549A3110F51A3000F5E12FF0E0E05721
:1014C000FD4F80831F5F6CE070E08EE390E00E9430
:1014D0009A17DF93CF935F924F920E94181B812F30
:1014E00090E06CE070E0CE960E949A170E94C617BA
:1014F0000F900F900F900F9025C080919B02843425
:1015000009F51123F9F01150812E912CF401E057C7
:10151000FD4F10826CE070E08EE390E00E949A171D
:10152000DF93CF93DF92CF920E94181B6CE070E0A4
:10153000C401CE960E949A170E94C6170F900F9072
:101540000F900F90A0929C02A0929B0277CF0E94D6
:10155000DC176CE070E08EE390E00E949A170E9426
:10156000C6176BE070E08EE390E00E949A170E942D
:10157000C61780E20E94CF1703C080919C0296CFCD
:10158000DF91CF911F91FF90EF90DF90CF90AF90C0
:101590009F908F907F906F905F904F9008958BE415
:1015A00090E00E94E61D6C3C7D49834A924009F41C
:1015B00053C04CEC5DE963EA72E08BE490E00E947A
:1015C0000E1E4BE050E060E470E08EE991E00E9476
:1015D000EC1D4BE050E065E370E08EE991E00E9485
:1015E000EC1D4BE050E06AE270E08EE991E00E9471
:1015F000EC1D4BE050E06FE170E08EE991E00E945D
:10160000EC1D4BE050E064E170E08EE991E00E9457
:10161000EC1D40E050E0BA0180E190E00E940E1E17
:1016200040E050E0BA018CE090E00E940E1E40E0E5
:1016300050E0BA0188E090E00E940E1E40E050E0C9
:10164000BA0184E090E00E940E1E40E050E0BA0132
:1016500080E090E00E940E1E08954F925F926F927C
:101660007F928F929F92AF92BF92CF92DF92EF9232
:10167000FF92CF93DF93CDB7DEB7EF970FB6F89415
:10168000DEBF0FBECDBF83E20E94CF1749E367E103
:1016900085E00E94EE1783E20E94CF1749E367E1DD
:1016A00087E10E94EE1783E20E94CF1747E165E0D1
:1016B00087E10E940B1883E20E94CF1747E165E0A3
:1016C00089E30E940B1880E20E94CF174BE050E0A4
:1016D00060E470E0CE0101960E94D61D4BE050E020
:1016E00065E370E0CE010C960E94D61D4BE050E001
:1016F0006AE270E0CE0147960E94D61D4BE050E0B2
:101700006FE170E0CE0182960E94D61D4BE050E062
:1017100064E170E0CE018D960E94D61D80E190E0DC
:101720000E94E61D6B017C018CE090E00E94E61DAA
:101730004B015C0188E090E00E94E61D2B013C011A
:1017400084E090E00E94E61D68AF79AF8AAF9BAF5E
:1017500080E090E00E94E61D6CAF7DAF8EAF9FAF42
:1017600067E070E084E290E00E949A1786E291E0E0
:101770009F938F930E94181B69E070E08AE190E0CC
:101780000E949A1780E291E09F938F930E94181B0A
:1017900069E070E084E290E00E949A178AE191E0AB
:1017A0009F938F930E94181B69E070E08DE290E098
:1017B0000E949A1782E191E09F938F930E94181BD9
:1017C00081E20E94CF176BE070E08AE190E00E9416
:1017D0009A178CE091E09F938F930E94181B6DE005
:1017E00070E08AE190E00E949A1787E091E09F9371
:1017F0008F930E94181B6FE070E08AE190E00E94D6
:101800009A1782E091E09F938F930E94181B61E1E9
:1018100070E08AE190E00E949A178CEF90E09F932D
:101820008F930E94181B63E170E08AE190E00E94B0
:101830009A1787EF90E09F938F930E94181B0FB623
:10184000F894DEBF0FBECDBFC114D104E104F10492
:1018500059F18FE10E94CF176BE070E084E290E0D5
:101860000E949A17FF92EF92DF92CF9283EF90E05F
:101870009F938F930E94181B84E20E94CF176BE006
:1018800070E08DE290E00E949A17CE0101969F933E
:101890008F9380EF90E09F938F930E94181B0FB659
:1018A000F894DEBF0FBECDBF81149104A104B10432
:1018B00059F18FE10E94CF176DE070E084E290E073
:1018C0000E949A17BF92AF929F928F928CEE90E0F7
:1018D0009F938F930E94181B84E20E94CF176DE0A4
:1018E00070E08DE290E00E949A17CE010C969F93D3
:1018F0008F9389EE90E09F938F930E94181B0FB6F1
:10190000F894DEBF0FBECDBF4114510461047104D1
:1019100059F18FE10E94CF176FE070E084E290E010
:101920000E949A177F926F925F924F9285EE90E09D
:101930009F938F930E94181B84E20E94CF176FE041
:1019400070E08DE290E00E949A17CE0147969F9337
:101950008F9382EE90E09F938F930E94181B0FB697
:10196000F894DEBF0FBECDBF28AD39AD4AAD5BAD3B
:10197000232B242B252B79F18FE10E94CF1761E1D6
:1019800070E084E290E00E949A173BAD3F934AAD2D
:101990004F9359AD5F9388AD8F938EED90E09F93F9
:1019A0008F930E94181B84E20E94CF1761E170E0C0
:1019B0008DE290E00E949A17CE0182969F938F93BA
:1019C0008BED90E09F938F930E94181B0FB6F894B5
:1019D000DEBF0FBECDBF2CAD3DAD4EAD5FAD232BF9
:1019E000242B252B79F18FE10E94CF1763E170E062
:1019F00084E290E00E949A173FAD3F934EAD4F9323
:101A00005DAD5F938CAD8F9387ED90E09F938F9347
:101A10000E94181B84E20E94CF1763E170E08DE200
:101A200090E00E949A17CE018D969F938F9384ED3C
:101A300090E09F938F930E94181B0FB6F894DEBF1F
:101A40000FBECDBF80E20E94CF1780918F02813000
:101A500009F0B5C00E944415C616D706E806F90677
:101A6000D8F40E94C8090E944415AB01BC0180E172
:101A700090E00E940E1E4BE050E060E470E080E9D0
:101A800092E00E94EC1D6BE070E08AE190E00E9421
:101A90009A170E94C6178FC00E9444158616970693
:101AA000A806B906D8F40E94C8090E944415AB01E3
:101AB000BC018CE090E00E940E1E4BE050E065E31C
:101AC00070E080E992E00E94EC1D6DE070E08AE138
:101AD00090E00E949A170E94C6176DC00E9444159C
:101AE0004616570668067906D8F40E94C8090E946F
:101AF0004415AB01BC0188E090E00E940E1E4BE053
:101B000050E06AE270E080E992E00E94EC1D6FE034
:101B100070E08AE190E00E949A170E94C6174BC0BD
:101B20000E94441528AD39AD4AAD5BAD2617370785
:101B300048075907D8F40E94C8090E944415AB0110
:101B4000BC0184E090E00E940E1E4BE050E06FE18B
:101B500070E080E992E00E94EC1D61E170E08AE1B2
:101B600090E00E949A170E94C61725C00E94441553
:101B70002CAD3DAD4EAD5FAD261737074807590771
:101B8000D0F40E94C8090E944415AB01BC0180E05A
:101B900090E00E940E1E4BE050E064E170E080E9AE
:101BA00092E00E94EC1D63E170E08AE190E00E9407
:101BB0009A170E94C61710928F020E942D0BEF9663
:101BC0000FB6F894DEBF0FBECDBFDF91CF91FF906F
:101BD000EF90DF90CF90BF90AF909F908F907F90CD
:101BE0006F905F904F90089581E080938F0269E03D
:101BF00070E081E090E00E949A170E9444159F9344
:101C00008F937F936F9386EA90E09F938F930E94C8
:101C1000181B6BE070E081E090E00E949A170E9430
:101C2000C8101F928F938CE990E09F938F930E942E
:101C3000181B0E942D0B8DB79EB70A960FB6F8940D
:101C40009EBF0FBE8DBF0895ECE7F0E080818E7FD0
:101C50008083EAE7F0E0808180648083808186FD74
:101C6000FDCF80917800909179000895ECE7F0E045
:101C7000808181608083EAE7F0E0808180648083F6
:101C8000808186FDFDCF8091780090917900089544
:101C9000E0919D02F0E0E256FD4F808380919D022D
:101CA0008F5F80939D020E9451186093A6027093EB
:101CB000A7028093A8029093A90208954F925F9281
:101CC0006F927F928F929F92AF92BF92CF92DF924C
:101CD000EF92FF92CF93DF930E945118C090A6021B
:101CE000D090A702E090A802F090A9022AEFC20EBD
:101CF000D11CE11CF11C6C157D058E059F0508F4B7
:101D000065C180919D02893008F060C10E94360E45
:101D1000EC016091AA027091AB0280E090E00E9419
:101D200036196B017C012DEC3CEC4CE85FE30E9422
:101D3000ED194B015C01BE0180E090E00E94361974
:101D4000A50194010E94E81988231CF10E94240E29
:101D5000BC0180E090E00E9436192B013C016091AB
:101D6000AC027091AD0280E090E00E9436192DEC3B
:101D70003CEC4CE85FE30E94ED199B01AC01C30110
:101D8000B2010E94E819882324F085E00E94480EE1
:101D90001DC10E94360EBC0180E090E00E94361901
:101DA0009B01AC01C501B4010E94901818161CF1EA
:101DB0000E94240EBC0180E090E00E9436194B0185
:101DC0005C016091AC027091AD0280E090E00E94F5
:101DD00036192DEC3CEC4CE85FE30E9495189B0112
:101DE000AC01C501B4010E949018181624F086E0D9
:101DF0000E94480EEBC00E94360EEC012DEC3CEC2C
:101E00004CE85FE3C701B6010E9495184B015C01E5
:101E1000BE0180E090E00E943619A50194010E9465
:101E2000901818161CF10E94240EBC0180E090E06E
:101E30000E9436192B013C016091AC027091AD02F9
:101E400080E090E00E9436192DEC3CEC4CE85FE31A
:101E50000E94ED199B01AC01C301B2010E94E81977
:101E6000882324F087E00E94480EB0C00E94360EFE
:101E7000BC0180E090E00E9436199B01AC01C501D5
:101E8000B4010E94E81988231CF10E94240EBC01B1
:101E900080E090E00E9436194B015C016091AC0239
:101EA0007091AD0280E090E00E9436192DEC3CEC80
:101EB0004CE85FE30E9495189B01AC01C501B40199
:101EC0000E949018181624F088E00E94480E7EC0E8
:101ED0000E94360EBC0180E090E00E9436194B0152
:101EE0005C0126E636E646EA5FE3C701B6010E94DA
:101EF000ED199B01AC01C501B4010E94E8198823CA
:101F000024F081E00E94480E61C00E94240EEC0182
:101F10006091AC027091AD0280E090E00E943619B1
:101F20004B015C01BE0180E090E00E9436192B015C
:101F30003C0126E636E646EA5FE3C501B4010E94AD
:101F4000ED199B01AC01C301B2010E94E81988237D
:101F500024F082E00E94480E39C00E94240EBC0189
:101F600080E090E00E9436192B013C0126E636E61F
:101F700046EA5FE3C501B4010E9495189B01AC01DC
:101F8000C301B2010E949018181624F083E00E9449
:101F9000480E1CC00E94360EBC0180E090E00E94FA
:101FA00036194B015C0126E636E646EA5FE3C701D7
:101FB000B6010E9495189B01AC01C501B4010E94B5
:101FC000901818161CF084E00E94480EDF91CF9103
:101FD000FF90EF90DF90CF90BF90AF909F908F9049
:101FE0007F906F905F904F90089580919D0288231D
:101FF00039F080919E0290919D02915090939D02A4
:10200000089580E090E0FC01E256FD4F10821092AE
:102010009D02019688309105B1F7089580E4809380
:102020007C0086E880937A000E94240E9093AD0293
:102030008093AC020E94360E9093AB028093AA026A
:102040000E9401100E9451186093A6027093A7028B
:102050008093A8029093A902089580E80E946C17CB
:1020600008951F93CF93DF938031B0F46830A0F4CC
:10207000142FC62FD82F81E00E9494176C2F677001
:1020800080E1689F900111248D2F8F70822B0E9418
:102090009417812F0E949417DF91CF911F9108957B
:1020A0000F931F93CF93DF93883090F48B01C82F49
:1020B00082E00E9494178C2F87700E949417E80189
:1020C000005F1F4F89910E949417C017D107D1F765
:1020D000DF91CF911F910F9108950F931F93CF938D
:1020E000DF93803190F48B01C82F83E00E94941716
:1020F0008C2F8F700E949417E801085F1F4F899101
:102100000E949417C017D107D1F7DF91CF911F918B
:102110000F91089584E00E94941782E00E94941722
:1021200008958FE00E949417089561E070E08EE1B9
:1021300090E00E949A178091E5021F928F9380E3AE
:1021400091E09F938F930E94181B0F900F900F9018
:102150000F9008951092E40281E08093E5020E94BE
:102160009510EEEAF2E088EE93E09183808384E1BB
:1021700095E09383828381E693E09583848389EC61
:1021800094E0978386838EE794E091878087089513
:102190008091E50208952091E40230E0F901EE0F0C
:1021A000FF1F2E0F3F1F280F311DF901EE0FFF1FDC
:1021B000EE0FFF1FEE0FFF1FE253FE4F2081318114
:1021C0004281538164817581868197810895209130
:1021D000E40230E0220F331FF901E80FF11DEE0F8A
:1021E000FF1FEE0FFF1FEA55FE4F60817181828154
:1021F000938108952091E40230E0A901440F551F16
:10220000240F351F26593E4FF901E80FF11D80813B
:102210000895E82FF0E0EE0FFF1FE255FD4F80819B
:1022200091810895FF920F931F93CF93DF9381E0E5
:102230000E94AB048FEF9FEF0E9454022FE788E3C8
:1022400091E0215080409040E1F700C00000C0E0E4
:1022500010C08FEF9FEF0E9454022FE788E391E0B8
:10226000215080409040E1F700C00000C0FD0E9476
:102270008A10CF5FC03269F7F090E50221E02F1598
:10228000B8F4CEEAD2E008EB12E06881798180E010
:1022900090E00E94361926E636E646EA5FE30E94A1
:1022A00095180E94071969937993C017D10769F7A8
:1022B0008091E402843019F41092E40203C08F5F2D
:1022C0008093E402F394F092E5020E949510DF916E
:1022D000CF911F910F91FF90089582B1E091B802C4
:1022E000F0E0EA5BFD4F83789081892B82B961E051
:1022F00070E08FE090E00E949A178091B8021F92E0
:102300008F938AE391E09F938F930E94181B0F9005
:102310000F900F900F90089581B18C6781B983E081
:102320008093B8020E946D1108958091B8028530A3
:1023300029F08F5F8093B8020E946D1108958091FB
:10234000B80208950E9482078823E1F081E00E948C
:10235000AB040E9485078091B80281508093B80237
:102360000E946D118091B802882361F082E090E0B4
:102370000E9454020E9499070E94D9030E94D2161B
:102380000E94011008950E94CB16882361F180916C
:10239000FF03909100040E94DA1A8093BB0290918F
:1023A000B902911109C08B31E1F481E08093B90247
:1023B0008FEF8093BB020895913049F48B3589F4F7
:1023C00082E08093B9028FEF8093BB020895923030
:1023D00041F48093BA028FEF8093BB021092B9024E
:1023E00008951092B90208950E942D100E94CB0307
:1023F00040E060E07BE480E090E00E9484160E9470
:1024000037180E9406020E94CF0A0E940E1078948C
:1024100008950E94BD1780E20E94CF170E942D0BE5
:1024200062E070E085E290E00E949A1787EA91E00E
:102430009F938F930E94181B63E070E080E190E00F
:102440000E949A1785E791E09F938F930E94181B33
:102450000E9491100F900F900F900F9060EF8CE4FE
:1024600092E00E944D150DC02FE789EA93E02150BC
:1024700080409040E1F700C000000E94E3038F3FDE
:1024800029F40E945C158111EFCFE8CF08950E94D6
:10249000BD170E94DC170E94C4070E9422150E94EB
:1024A0008C110E94AA100E947F040E94D9030E94EE
:1024B000D2160E9401100895CF93DF930E94511805
:1024C0006093D4027093D5028093D6029093D70282
:1024D0006093D0027093D1028093D2029093D30282
:1024E0006093CC027093CD028093CE029093CF0282
:1024F0006093C8027093C9028093CA029093CB0282
:102500006093C4027093C5028093C6029093C70281
:102510006093C0027093C1028093C2029093C30281
:102520006093BC027093BD028093BE029093BF0281
:10253000CFEF12C20E948207811119C00E94730757
:102540008823A9F00E946907882359F084E090E06D
:102550000E9454020E9412110E94C4070E94951109
:1025600006C083E090E00E9454020E949907C09345
:10257000BB02C093BA020E94F50F809379018111CA
:102580004EC00E94E30380937A018F3F81F08091D7
:10259000D4029091D502A091D602B091D702809337
:1025A000BC029093BD02A093BE02B093BF020E94F2
:1025B00010048F3F69F18091BC029091BD02A091FF
:1025C000BE02B091BF0286509F4FAF4FBF4F4091A8
:1025D000D4025091D5026091D6027091D70248176B
:1025E00059076A077B07A0F00E94100480937A01C4
:1025F0008091D4029091D502A091D602B091D702D9
:102600008093BC029093BD02A093BE02B093BF0220
:1026100080917A018F3F41F50E94C31125C085301A
:102620001CF1853039F481E090E00E9454020E9450
:102630006A081AC0863039F481E090E00E945402A2
:102640000E94B10811C0873039F481E090E00E9407
:1026500054020E94F80808C0883031F481E090E00C
:102660000E9454020E941D0990917A01933069F0F2
:102670002091BA02243449F08091BB028F7D8134CD
:1026800021F030917901323039F481E090E00E94FC
:1026900054020E9430084DC0923031F0213421F0B4
:1026A000873511F0313039F481E090E00E94540216
:1026B0000E94DC073EC0913031F0223421F0833596
:1026C00011F0343039F481E090E00E9454020E940D
:1026D00015082FC0992331F0233421F0843411F0F0
:1026E000333039F481E090E00E9454020E944D089A
:1026F00020C08035F1F481E00E945F1881E00E94E3
:10270000AB04DAB15498C093BB020E94C31180910C
:10271000BB028F7D8035C9F780E00E945F1880E0A2
:102720000E94AB04DAB90E94D9030E94D2160E941B
:1027300001100E9451186093D4027093D5028093C7
:10274000D6029093D7020E94820781112FC00E9467
:1027500009114091D0025091D1026091D202709142
:10276000D302480F591F611D711D8091D4029091B1
:10277000D502A091D602B091D70284179507A6077B
:10278000B707A0F061E080E00E9442098091D40286
:102790009091D502A091D602B091D7028093D00239
:1027A0009093D102A093D202B093D3020E948207E9
:1027B000811130C081E00E9409114091CC025091FA
:1027C000CD026091CE027091CF02480F591F611D5A
:1027D000711D8091D4029091D502A091D602B09142
:1027E000D70284179507A607B707A0F06C2F81E0E2
:1027F0000E9442098091D4029091D502A091D60204
:10280000B091D7028093CC029093CD02A093CE02D8
:10281000B093CF020E948207811130C082E00E94F3
:1028200009114091C8025091C9026091CA02709189
:10283000CB02480F591F611D711D8091D4029091E8
:10284000D502A091D602B091D70284179507A607AA
:10285000B707A0F061E082E00E9442098091D402B3
:102860009091D502A091D602B091D7028093C80270
:102870009093C902A093CA02B093CB020E94820730
:10288000811130C083E00E9409114091C40250912F
:10289000C5026091C6027091C702480F591F611DA1
:1028A000711D8091D4029091D502A091D602B09171
:1028B000D70284179507A607B707A0F06C2F80E012
:1028C0000E947B098091D4029091D502A091D602FA
:1028D000B091D7028093C4029093C502A093C60220
:1028E000B093C7020E948207811130C084E00E9429
:1028F00009114091C0025091C1026091C2027091D1
:10290000C302480F591F611D711D8091D40290911F
:10291000D502A091D602B091D70284179507A607D9
:10292000B707A0F061E081E00E947B098091D402AA
:102930009091D502A091D602B091D7028093C002A7
:102940009093C102A093C202B093C3020E94A2114D
:102950008FEF9FEF0E9454020E949F118111EACDD8
:10296000DF91CF91089581E00E94AB040E94BD17D2
:102970000E948207811113C062E070E085E290E05E
:102980000E949A178CE691E09F938F930E94181BE8
:1029900085E090E00E9454020F900F9012C062E018
:1029A00070E085E290E00E949A1782E691E09F93A2
:1029B0008F930E94181B86E090E00E9454020F90B3
:1029C0000F900E94F40D0E94D90363E070E08AE149
:1029D00090E00E949A1784E491E09F938F930E9465
:1029E000181B0F900F900E94E3038F3FE1F30895AF
:1029F0000E94F4110E9409120E9447120E945C1268
:102A00000E94B314F9CF61E070E080E090E00E9492
:102A10009A178091E9028F938091E8028F938091B9
:102A2000E7028F938091E6028F938FEA91E09F9364
:102A30008F930E94181B0F900F900F900F900F9084
:102A40000F9008951092E6021092E7021092E802A9
:102A50001092E9020E94031508954091E6025091F8
:102A6000E7026091E8027091E902480F591F611D69
:102A7000711D4093E6025093E7026093E802709361
:102A8000E9020E94031508956091E6027091E70241
:102A90008091E8029091E902089560937B01909300
:102AA000DC028093DB021092DE021092DD021092B3
:102AB000DA021092D90208950F931F93CF93DF93F8
:102AC000CDB7DEB728970FB6F894DEBF0FBECDBFE7
:102AD000E091DD02F091DE02309781F0149110FF59
:102AE00006C01092DE021092DD0200E06BC031964B
:102AF000F093DE02E093DD0200E064C0E091D902D1
:102B0000F091DA02309709F449C0CF010196909311
:102B1000DA028093D902E081E1110AC01092DA0250
:102B20001092D90280E18093D80200E010E04AC000
:102B30008FE98E0F8A3170F4F0E0EE0FFF1FE45F33
:102B4000FE4F859194919093DE028093DD0200E028
:102B500010E038C08FEB8E0F8A3170F4F0E0EE0F8A
:102B6000FF1FE45BFE4F859194919093DE0280936A
:102B7000DD0200E010E026C080ED8E0F8A3000F507
:102B8000F0E0EE0FFF1FE65AFE4F8591949190936F
:102B9000DE028093DD0200E010E014C08091DB02D1
:102BA0009091DC0201E0009709F000E09093DA02D6
:102BB0008093D9021092DC021092DB0210E002C076
:102BC00000E010E00E948A1020917B01FE013896FF
:102BD000CE010196112314F4208301C01082110F3D
:102BE0003197E817F907B1F71982BE016F5F7F4F80
:102BF0008FE00E946D108091D802882389F0815067
:102C00008093D802002311F0882311F090E003C0D4
:102C100091E001C091E081E0992329F080E003C0B8
:102C20000023A1F3F7CF28960FB6F894DEBF0FBEAE
:102C3000CDBFDF91CF911F910F910895CF93C82FF2
:102C40008A3019F48DE00E941E169FB7907802C05A
:102C5000992329F18091EB028F3FD1F3F894E09111
:102C6000EA0281E08E0F8093EA02F0E0E451FD4F2A
:102C7000C0838091EB028F5F8093EB028091EA0228
:102C80008F3F11F41092EA02E1ECF0E08081806263
:102C90008083992339F0789480E090E005C081E04A
:102CA00090E002C080E090E0CF9108958091FD0314
:102CB0008823E1F32FB72078F8948091EB033091CB
:102CC000FD0390E0831B91095AF4E091EB0380919E
:102CD000FD03F0E0E81BF109E450FC4F80810AC0DD
:102CE000E091EB038091FD03F0E0E81BF109E45172
:102CF000FC4F80819091FD0391509093FD0322231E
:102D000009F0789490E008951092EA021092EB0294
:102D10001092EB031092FD031092FC034093DF022C
:102D2000DC01CB01880F991FAA1FBB1F880F991FB9
:102D3000AA1FBB1F9C01AD01220F331F441F551F4B
:102D400060E072E18AE790E00E947C1ABA01A90172
:102D50004F5F5F4F6F4F7F4FDB01CA011AF401963F
:102D6000A11DB11DB595A79597958795019790934E
:102D7000C5008093C400E1ECF0E088E180838081AD
:102D800080688083EFEFF3E08CE791E093838283A8
:102D90009183808308959091FD0381E0911101C09A
:102DA00080E008951092EB031092FD0308951F92A6
:102DB0000F920FB60F9211242F938F939F93EF933F
:102DC000FF938091EB02882329F18091EA02209100
:102DD000EB0290E0821B91095AF4E091EA028091A3
:102DE000EB02F0E0E81BF109E551FC4F90810AC0CD
:102DF000E091EA028091EB02F0E0E81BF109E45176
:102E0000FD4F90818091EB0281508093EB02909373
:102E1000C60005C0E1ECF0E080818F7D8083FF91EA
:102E2000EF919F918F912F910F900FBE0F901F9058
:102E300018951F920F920FB60F9211242F933F9364
:102E40004F935F936F937F938F939F93AF93BF93B2
:102E5000CF93EF93FF93C091C6008091DF02882348
:102E600049F08091EB028F3F29F060E070E08C2FF9
:102E70000E941E168091FD03803120F081E0809336
:102E8000FC0318C0CD3009F4CAE0E091EB0381E007
:102E90008E0F8093EB03F0E0E451FC4FC0838091F0
:102EA000FD038F5F8093FD038091EB03803111F46C
:102EB0001092EB03FF91EF91CF91BF91AF919F9152
:102EC0008F917F916F915F914F913F912F910F90D3
:102ED0000FBE0F901F90189594B1906B94B92C9AD7
:102EE00090E59CBD883021F0803211F0823019F4D9
:102EF00091E09DBD01C01DBC803269F028F488308E
:102F000071F0803161F00EC0803429F0803851F4C6
:102F10008CB581608CBD8CB582608CBD03C08CB5D6
:102F200081608CBD2C9808958EBD0DB407FEFDCF39
:102F30008EB508959F938F937F936F9386EC92E065
:102F40009F938F930E94181B0F900F900F900F90DC
:102F50000F900F90089581EC92E09F938F930E94C1
:102F6000181B0F900F9008958CEB92E09F938F9316
:102F70000E94181B0F900F90089587EB92E09F938B
:102F80008F930E94181B0F900F90089583EB92E08F
:102F90009F938F930E94181B0F900F9008951F927C
:102FA0008F938DEA92E09F938F930E94181B0F904E
:102FB0000F900F900F90089586EA92E09F938F9361
:102FC0000E94181B0F900F9008958FE992E09F9335
:102FD0008F930E94181B0F900F900895CF93DF934B
:102FE000C62FD42F682F880F770B8C2F0C2E000C38
:102FF000990B0E949A170E94B417DC173CF080E2EC
:1030000090E00E943E1BCF5FDC17CCF70E94AB170D
:10301000DF91CF9108950F931F93CF93DF93C62F26
:10302000D42F062E000C770B082E000C990B0E9453
:103030009A170E94B417CD177CF408E912E080E2D9
:1030400090E00E943E1B1F930F930E94181BCF5FBE
:103050000F900F90CD179CF380E290E00E943E1BF2
:103060000E94AB17DF91CF911F910F91089510929D
:10307000E0021092E1021092E2021092E30210923A
:10308000FE0316BC8CE787BD82E084BD83E085BD6E
:10309000EEE6F0E080818260808385B3827085BB3C
:1030A00008952FB7F8946091E0027091E102809149
:1030B000E2029091E30222230CF478940895809325
:1030C000FE03811103C085B3827085BB08951F92F2
:1030D0000F920FB60F9211248F939F93AF93BF93CC
:1030E0008091FE03811113C08091E0029091E10272
:1030F000A091E202B091E3020196A11DB11D80935F
:10310000E0029093E102A093E202B093E302BF9148
:10311000AF919F918F910F900FBE0F901F901895B8
:103120000E94731908F481E008950E94A9180C9474
:10313000AE190E94A71958F00E94A01940F029F476
:103140005F3F29F00C94971951110C94E2190C94DB
:103150009D190E94BF1968F39923B1F3552391F388
:10316000951B550BBB27AA2762177307840738F0F6
:103170009F5F5F4F220F331F441FAA1FA9F335D053
:103180000E2E3AF0E0E832D091505040E695001C07
:10319000CAF72BD0FE2F29D0660F771F881FBB1FC1
:1031A000261737074807AB07B0E809F0BB0B802D9F
:1031B000BF01FF2793585F4F3AF09E3F510578F0CB
:1031C0000C9497190C94E2195F3FE4F3983ED4F302
:1031D000869577956795B795F7959F5FC9F7880F9F
:1031E000911D9695879597F90895E1E0660F771FF1
:1031F000881FBB1F621773078407BA0720F0621B82
:10320000730B840BBA0BEE1F88F7E09508950E94AC
:10321000C71988F09F5798F0B92F9927B751B0F088
:10322000E1F0660F771F881F991F1AF0BA95C9F74A
:1032300014C0B13091F00E94E119B1E008950C94EE
:10324000E119672F782F8827B85F39F0B93FCCF3A1
:10325000869577956795B395D9F73EF490958095C7
:10326000709561957F4F8F4F9F4F0895E89409C0E7
:1032700097FB3EF490958095709561957F4F8F4FA9
:103280009F4F9923A9F0F92F96E9BB279395F695BF
:10329000879577956795B795F111F8CFFAF4BB0F3D
:1032A00011F460FF1BC06F5F7F4F8F4F9F4F16C0A1
:1032B000882311F096E911C0772321F09EE8872F2B
:1032C000762F05C0662371F096E8862F70E060E0E7
:1032D0002AF09A95660F771F881FDAF7880F969560
:1032E000879597F90895990F0008550FAA0BE0E804
:1032F000FEEF16161706E807F907C0F012161306B8
:10330000E407F50798F0621B730B840B950B39F4F7
:103310000A2661F0232B242B252B21F408950A265D
:1033200009F4A140A6958FEF811D811D089597F99D
:103330009F6780E870E060E008959FEF80EC08955B
:1033400000240A9416161706180609060895002484
:103350000A9412161306140605060895092E0394FE
:10336000000C11F4882352F0BB0F40F4BF2B11F472
:1033700060FF04C06F5F7F4F8F4F9F4F089557FDD1
:103380009058440F551F59F05F3F71F04795880FD3
:1033900097FB991F61F09F3F79F08795089512166A
:1033A00013061406551FF2CF4695F1DF08C0161616
:1033B00017061806991FF1CF8695710561050894C7
:1033C0000895E894BB2766277727CB0197F90895DE
:1033D0000E94731908F48FEF08950E94001A0C944C
:1033E000AE190E94A01938F00E94A71920F0952369
:1033F00011F00C9497190C949D1911240C94E21956
:103400000E94BF1970F3959FC1F3950F50E0551FAF
:10341000629FF001729FBB27F00DB11D639FAA2729
:10342000F00DB11DAA1F649F6627B00DA11D661F78
:10343000829F2227B00DA11D621F739FB00DA11D99
:10344000621F839FA00D611D221F749F3327A00D53
:10345000611D231F849F600D211D822F762F6A2FEF
:1034600011249F5750409AF0F1F088234AF0EE0F54
:10347000FF1FBB1F661F771F881F91505040A9F781
:103480009E3F510580F00C9497190C94E2195F3F10
:10349000E4F3983ED4F3869577956795B795F795BD
:1034A000E7959F5FC1F7FE2B880F911D9695879535
:1034B00097F90895A1E21A2EAA1BBB1BFD010DC0AE
:1034C000AA1FBB1FEE1FFF1FA217B307E407F507D4
:1034D00020F0A21BB30BE40BF50B661F771F881FB0
:1034E000991F1A9469F760957095809590959B0146
:1034F000AC01BD01CF010895052E97FB1EF4009489
:103500000E94931A57FD07D00E945A1A07FC03D055
:103510004EF40C94931A50954095309521953F4F59
:103520004F4F5F4F089590958095709561957F4FAF
:103530008F4F9F4F0895EE0FFF1F0590F491E02DE0
:103540000994A29FB001B39FC001A39F700D811D7C
:103550001124911DB29F700D811D1124911D08959C
:1035600097FB10F8169400080F93083098F0085055
:10357000232F342F452F562F672F782F892F902DEB
:10358000F4CF0594979587957795679557954795C7
:10359000379527950A95AAF70F9108950024A7FD5E
:1035A00000942A1730054005500560057005800518
:1035B00090050895CF93DF93EC012B8120FF33C05A
:1035C00026FF0AC02F7B2B838E819F8101969F83CC
:1035D0008E838A8190E029C022FF0FC0E881F981A3
:1035E0008081082E000C990B009719F420622B8320
:1035F0001AC03196F983E8830EC0EA85FB850995E8
:1036000097FF09C02B81019611F080E201C080E193
:10361000822B8B8308C02E813F812F5F3F4F3F83DA
:103620002E83992702C08FEF9FEFDF91CF910895EE
:10363000A0E0B0E0EEE1FBE10C94281EAE01495F92
:103640005F4FDA016D917D91AD010FEF13E0F8014D
:1036500082819381DC0113962C9113972860139635
:103660002C930E94451BD8011296ED91FC91139763
:103670002381277F2383E4E00C94441E609101049E
:10368000709102040E943C1D0895ABE0B0E0EBE4B1
:10369000FBE10C941A1E6C017B018A01FC0117826C
:1036A0001682838181FFCCC1CE0101963C01F601D7
:1036B0009381F70193FD859193FF81917F01882389
:1036C00009F4BAC1853239F493FD859193FF819154
:1036D0007F01853229F4B60190E00E943C1DE7CFBE
:1036E000912C212C312CFFE1F315D8F08B3279F09D
:1036F00038F4803279F08332A1F4232D20611DC08B
:103700008D3261F0803369F4232D216016C0832D42
:103710008260382EE32DE4603E2E2AC0F32DF8603F
:103720001DC037FC2DC020ED280F2A3040F08E320E
:10373000B9F436FC81C1232D2064322E19C036FE27
:1037400006C08AE0989E200D1124922E11C0EAE056
:103750002E9E200D1124222EF32DF0623F2E08C044
:103760008C3621F4832D8068382E02C0883641F4CF
:10377000F70193FD859193FF81917F018111B3CF73
:10378000982F9F7D9554933028F40C5F1F4F9FE333
:1037900099830DC0833631F0833771F0833509F09A
:1037A00059C021C0F801808189830E5F1F4F882492
:1037B0008394912C530113C02801F2E04F0E511C49
:1037C000F801A080B18036FE03C0692D70E002C010
:1037D0006FEF7FEFC5010E94311D4C018201F32D77
:1037E000FF773F2E16C0280122E0420E511CF8013F
:1037F000A080B18036FE03C0692D70E002C06FEF7B
:103800007FEFC5010E94261D4C01F32DF0683F2E6D
:10381000820133FC1BC0822D90E088169906B0F41B
:10382000B60180E290E00E943C1D2A94F4CFF5019D
:1038300037FC859137FE81915F01B60190E00E94CF
:103840003C1D21102A9421E0821A910881149104D0
:1038500071F7E8C0843611F0893641F5F80137FE7A
:1038600007C060817181828193810C5F1F4F08C006
:1038700060817181072E000C880B990B0E5F1F4F22
:10388000F32DFF763F2E97FF09C090958095709598
:1038900061957F4F8F4F9F4FF0683F2E2AE030E0B9
:1038A000A3010E94781D882E861845C0853731F403
:1038B000232D2F7EB22E2AE030E025C0932D997F54
:1038C000B92E8F36C1F018F4883579F0B5C080373D
:1038D00019F0883721F0B0C0E92FE061BE2EB4FEA8
:1038E0000DC0FB2DF460BF2E09C034FE0AC0292F85
:1038F0002660B22E06C028E030E005C020E130E0AE
:1039000002C020E132E0F801B7FE07C0608171819A
:10391000828193810C5F1F4F06C06081718180E0BE
:1039200090E00E5F1F4FA3010E94781D882E86181D
:10393000FB2DFF773F2E36FE0DC0232D2E7FA22EAE
:10394000891458F434FE0BC032FC09C0832D8E7EDE
:10395000A82E05C0B82CA32C03C0B82C01C0B92CCC
:10396000A4FE0FC0FE01E80DF11D8081803321F41B
:103970009A2D997EA92E09C0A2FE06C0B394B394D5
:1039800004C08A2D867809F0B394A3FC11C0A0FE70
:1039900006C0B21488F4280C922C9B180EC0B214E6
:1039A00060F4B60180E290E00E943C1DB394F7CF32
:1039B000B21418F42B1802C0982C212CA4FE10C0AD
:1039C000B60180E390E00E943C1DA2FE17C0A1FC5E
:1039D00003C088E790E002C088E590E0B6010CC023
:1039E0008A2D867859F0A1FE02C08BE201C080E2E8
:1039F000A7FC8DE2B60190E00E943C1D891438F4CA
:103A0000B60180E390E00E943C1D9A94F7CF8A941F
:103A1000F301E80DF11D8081B60190E00E943C1D8C
:103A20008110F5CF222009F442CEB60180E290E069
:103A30000E943C1D2A94F6CFF6018681978102C030
:103A40008FEF9FEF2B96E2E10C94361EFC01059060
:103A5000615070400110D8F7809590958E0F9F1F90
:103A60000895FC016150704001900110D8F78095D5
:103A700090958E0F9F1F08950F931F93CF93DF9301
:103A8000FB01238121FD03C08FEF9FEF2CC022FF9C
:103A900016C046815781248135814217530744F46B
:103AA000A081B1819D012F5F3F4F318320838C9393
:103AB000268137812F5F3F4F3783268314C08B01C8
:103AC000EC01FB010084F185E02D0995892BE1F6DD
:103AD000D80116968D919C911797019617969C93F5
:103AE0008E931697CE01DF91CF911F910F9108957C
:103AF000FA01AA27283051F1203181F1E8946F931F
:103B00006E7F6E5F7F4F8F4F9F4FAF4FB1E03ED0C4
:103B1000B4E03CD0670F781F891F9A1FA11D680F62
:103B2000791F8A1F911DA11D6A0F711D811D911D95
:103B3000A11D20D009F468943F912AE0269F11240A
:103B40003019305D3193DEF6CF010895462F47706E
:103B5000405D4193B3E00FD0C9F7F6CF462F4F70C9
:103B6000405D4A3318F0495D31FD4052419302D027
:103B7000A9F7EACFB4E0A6959795879577956795CD
:103B8000BA95C9F700976105710508959B01AC01CD
:103B90000A2E06945795479537952795BA95C9F7F4
:103BA000620F731F841F951FA01D0895DC01CB01B8
:103BB000FC01F999FECF06C0F2BDE1BDF89A31963D
:103BC00000B40D9241505040B8F70895A6E1B0E01E
:103BD00044E050E00C94D81DDC01A40FB51F415007
:103BE000504048F0CB01840F951F2E910E94FD1D7F
:103BF00041505040D0F70895262FF999FECF92BD3D
:103C000081BDF89A019700B4021639F01FBA20BDA1
:103C10000FB6F894FA9AF99A0FBE08950396272FD3
:103C20000E94FD1D0E94FC1D252F0E94FD1D242FBA
:103C30000C94FD1D2F923F924F925F926F927F9254
:103C40008F929F92AF92BF92CF92DF92EF92FF92AC
:103C50000F931F93CF93DF93CDB7DEB7CA1BDB0B58
:103C60000FB6F894DEBF0FBECDBF09942A883988FD
:103C700048885F846E847D848C849B84AA84B98404
:103C8000C884DF80EE80FD800C811B81AA81B98110
:103C9000CE0FD11D0FB6F894DEBF0FBECDBFED0124
:063CA0000895F894FFCF27
:103CA60064003200C80049010501050164003200C4
:103CB600320032003200C800050149014901B8014D
:103CC6004901B8016400640064006400C800490149
:103CD600050105014901B801640064004B004B0071
:103CE600C8000501260149015D01B80164006400B0
:103CF6004B004B00C800B8015D01490126010501D2
:103D060032001900B8010501FFFF0FDF0FDF0FDFDB
:103D16000FDFDFDFDFDF0F0F0FFFFF0F00000003F6
:103D2600000000001E16561600003F0006005B004D
:103D36004F0066006D007D0007007F006F004E4F4C
:103D4600204E414D4500F8789CF19C1DF6E6F8782A
:103D56009CE198DDF6E6F0781CF8981DE6E6F07032
:103D660098F19C19E6E6F8789CC19C19C68698C11C
:103D760018C398C118C31C0EC7E170703838C7C382
:103D8600070F0F0F0F0F98C170C398CD18C31C6E85
:103D9600C6E170663833C7C3070FCF0E0F0F98E121
:103DA60080C398E118C31C0EC7E17070383CC7C3C6
:103DB600878F0F0F0F0F98F118C398F118C31C0EB9
:103DC600F7E1707C3838C7C307860F0F0F0F98E1ED
:103DD60018C3F8C198E31C0EC7F17070383EC7C30C
:103DE60007FF0F0F0F0F00040C1C3C7C46524F4779
:103DF60047455220202053343432373731390000BA
:00000001FF
